0029029070999991901011020004+64333+023450FM-12+000599999V0202301N013919999999N0000001N9-00441+99999101381ADDGF100991999999999999999999
0029029070999991901102006004+64333+023450FM-12+000599999V0202001N011819999999N0000001N9+00781+99999102221ADDGF104991999999999999999999
0029029070999991901102013004+64333+023450FM-12+000599999V0202001N011819999999N0000001N9+00781+99999102081ADDGF108991999999999999999999
0029029070999991901102020004+64333+023450FM-12+000599999V0202001N013919999999N0000001N9+00781+99999102021ADDGF108991999999999999999999
0029029500999991901011020004+61483+021350FM-12+000699999V0202501N009819999999N0000001N9+00001+99999102151ADDGF108991999999999999999999
0029029500999991901102006004+61483+021350FM-12+000699999V0201601N008219999999N0000001N9+00781+99999102261ADDGF108991999999999999999999
0029029500999991901102013004+61483+021350FM-12+000699999V0201601N011819999999N0000001N9+00831+99999102181ADDGF108991999999999999999999
0029029500999991901102020004+61483+021350FM-12+000699999V0201601N013919999999N0000001N9+00831+99999102111ADDGF108991999999999999999999
0035029600999991901011020004+61183+022617FM-12+005199999V0203201N004119999999N0000001N9-00111+99999101671ADDGF108991999999999999999999MW1721
0029029600999991901102006004+61183+022617FM-12+005199999V0201401N002119999999N0000001N9+00501+99999101791ADDGF108991999999999999999999
0029029600999991901102013004+61183+022617FM-12+005199999V0201601N004119999999N0000001N9+00721+99999101781ADDGF108991999999999999999999
0029029600999991901102020004+61183+022617FM-12+005199999V0201401N006219999999N0000001N9+00671+99999101681ADDGF108991999999999999999999
0029029720999991901011020004+60450+022267FM-12+001499999V0202301N002619999999N0000001N9-00111+99999102101ADDGF108991999999999999999999
0029029720999991901102006004+60450+022267FM-12+001499999V0201401N009319999999N0000001N9+00781+99999102031ADDGF108991999999999999999999
0029029720999991901102013004+60450+022267FM-12+001499999V0201401N009319999999N0000001N9+00781+99999102031ADDGF108991999999999999999999
0029029720999991901102020004+60450+022267FM-12+001499999V0201801N009319999999N0000001N9+00721+99999101951ADDGF108991999999999999999999
0029029810999991901011020004+59500+020350FM-12+002699999V0202301N008719999999N0000001N9+00111+99999102041ADDGF106991999999999999999999
0029029810999991901102006004+59500+020350FM-12+002699999V0201801N012919999999N0000001N9+01001+99999101841ADDGF106991999999999999999999
0029029810999991901102013004+59500+020350FM-12+002699999V0201801N012919999999N0000001N9+00941+99999101881ADDGF106991999999999999999999
0029029810999991901102020004+59500+020350FM-12+002699999V0201801N010819999999N0000001N9+00941+99999101781ADDGF108991999999999999999999
0029227070999991901011020004+62167+030650FM-12+010299999V0201401N002119999999N0000001N9-00331+99999101001ADDGF108991999999999999999999
0029227070999991901102006004+62167+030650FM-12+010299999V0201401N001019999999N0000001N9+00111+99999102031ADDGF102991999999999999999999
0029227070999991901102013004+62167+030650FM-12+010299999V0201601N004119999999N0000001N9+00721+99999102031ADDGF103991999999999999999999
0029227070999991901102020004+62167+030650FM-12+010299999V0201401N003119999999N0000001N9+00501+99999101831ADDGF107991999999999999999999
0029029070999991901102506004+64333+023450FM-12+000599999V0201801N011819999999N0000001N9+00831+99999101671ADDGF106991999999999999999999
0035029070999991901102513004+64333+023450FM-12+000599999V0202301N015919999999N0000001N9+00781+99999101311ADDGF108991999999999999999999MW1621
0029029070999991901102520004+64333+023450FM-12+000599999V0202301N020119999999N0000001N9+00781+99999101481ADDGF108991999999999999999999
0029029500999991901102506004+61483+021350FM-12+000699999V0202301N018019999999N0000001N9+00891+99999102061ADDGF104991999999999999999999
0029029500999991901102513004+61483+021350FM-12+000699999V0202301N018019999999N0000001N9+01001+99999102121ADDGF106991999999999999999999
0029029500999991901102520004+61483+021350FM-12+000699999V0202301N011819999999N0000001N9+00891+99999102271ADDGF102991999999999999999999
0029029600999991901102506004+61183+022617FM-12+005199999V0201801N005119999999N0000001N9+00611+99999101681ADDGF102991999999999999999999
0029029600999991901102513004+61183+022617FM-12+005199999V0202001N006219999999N0000001N9+01001+99999101701ADDGF106991999999999999999999
0029029600999991901102520004+61183+022617FM-12+005199999V0202001N004119999999N0000001N9+00721+99999101821ADDGF102991999999999999999999
0029029720999991901102506004+60450+022267FM-12+001499999V0201401N009319999999N0000001N9+00831+99999102021ADDGF108991999999999999999999
0029029720999991901102513004+60450+022267FM-12+001499999V0202001N015419999999N0000001N9+01001+99999102121ADDGF108991999999999999999999
0029029720999991901102520004+60450+022267FM-12+001499999V0202001N004619999999N0000001N9+00891+99999102111ADDGF108991999999999999999999
0029029810999991901102506004+59500+020350FM-12+002699999V0202001N009819999999N0000001N9+00941+99999102071ADDGF104991999999999999999999
0029029810999991901102513004+59500+020350FM-12+002699999V0202001N009819999999N0000001N9+01001+99999102161ADDGF104991999999999999999999
0035029810999991901102520004+59500+020350FM-12+002699999V0201801N006219999999N0000001N9+01001+99999102081ADDGF106991999999999999999999MW1621
0029227070999991901102506004+62167+030650FM-12+010299999V0201601N003119999999N0000001N9+00561+99999101741ADDGF108991999999999999999999
0029227070999991901102513004+62167+030650FM-12+010299999V0201801N004119999999N0000001N9+00941+99999101721ADDGF107991999999999999999999
0029227070999991901102520004+62167+030650FM-12+010299999V0201801N003119999999N0000001N9+00611+99999101671ADDGF106991999999999999999999
0029029070999991901103006004+64333+023450FM-12+000599999V0203601N020119999999N0000001N9+00611+99999101301ADDGF100991999999999999999999
0029029070999991901103013004+64333+023450FM-12+000599999V0203401N020119999999N0000001N9+00561+99999101881ADDGF106991999999999999999999
0035029070999991901103020004+64333+023450FM-12+000599999V0203401N020119999999N0000001N9+00391+99999102301ADDGF106991999999999999999999MW1891
0029029500999991901103006004+61483+021350FM-12+000699999V0200201N022119999999N0000001N9+00781+99999101341ADDGF108991999999999999999999
0029029500999991901103013004+61483+021350FM-12+000699999V0203401N022119999999N0000001N9+00671+99999102191ADDGF107991999999999999999999
0029029500999991901103020004+61483+021350FM-12+000699999V0200201N018019999999N0000001N9+00561+99999102641ADDGF102991999999999999999999
0029029600999991901103006004+61183+022617FM-12+005199999V0203401N006219999999N0000001N9+00441+99999100591ADDGF106991999999999999999999
0029029600999991901103013004+61183+022617FM-12+005199999V0203401N006219999999N0000001N9+00671+99999101461ADDGF102991999999999999999999
0029029600999991901103020004+61183+022617FM-12+005199999V0203201N005119999999N0000001N9+00171+99999102041ADDGF100991999999999999999999
0029029720999991901103006004+60450+022267FM-12+001499999V0203201N009319999999N0000001N9+00501+99999100841ADDGF106991999999999999999999
0029029720999991901103013004+60450+022267FM-12+001499999V0203201N009319999999N0000001N9+00611+99999101821ADDGF107991999999999999999999
0029029720999991901103020004+60450+022267FM-12+001499999V0203401N004619999999N0000001N9+00221+99999102241ADDGF101991999999999999999999
0029029810999991901103006004+59500+020350FM-12+002699999V0203401N014919999999N0000001N9+00781+99999101361ADDGF106991999999999999999999
0029029810999991901103013004+59500+020350FM-12+002699999V0203401N015919999999N0000001N9+00721+99999102071ADDGF104991999999999999999999
0029029810999991901103020004+59500+020350FM-12+002699999V0203401N012919999999N0000001N9+00611+99999102781ADDGF104991999999999999999999
0029227070999991901103006004+62167+030650FM-12+010299999V0203201N005119999999N0000001N9+00331+99999099111ADDGF108991999999999999999999
0029227070999991901103013004+62167+030650FM-12+010299999V0203201N003119999999N0000001N9+00441+99999100101ADDGF104991999999999999999999
0029227070999991901103020004+62167+030650FM-12+010299999V0203201N002119999999N0000001N9-00061+99999100711ADDGF101991999999999999999999
0029029070999991901053006004+64333+023450FM-12+000599999V0209991C000019999999N0000001N9+00441+99999101471ADDGF104991999999999999999999
0029029070999991901053013004+64333+023450FM-12+000599999V0202501N004119999999N0000001N9+00501+99999101281ADDGF103991999999999999999999
0029029070999991901053020004+64333+023450FM-12+000599999V0202501N002119999999N0000001N9+00331+99999101271ADDGF102991999999999999999999
0029029500999991901053006004+61483+021350FM-12+000699999V0203601N004119999999N0000001N9+00561+99999101361ADDGF100991999999999999999999
0029029500999991901053013004+61483+021350FM-12+000699999V0203401N006219999999N0000001N9+00781+99999101381ADDGF102991999999999999999999
0029029500999991901053020004+61483+021350FM-12+000699999V0200701N004119999999N0000001N9+00611+99999101381ADDGF108991999999999999999999
0029029600999991901053006004+61183+022617FM-12+005199999V0200901N003119999999N0000001N9+01001+99999100781ADDGF101991999999999999999999
0029029600999991901053013004+61183+022617FM-12+005199999V0200501N004119999999N0000001N9+01331+99999100831ADDGF107991999999999999999999
0029029600999991901053020004+61183+022617FM-12+005199999V0203201N005119999999N0000001N9+01001+99999100921ADDGF108991999999999999999999
0029029720999991901053006004+60450+022267FM-12+001499999V0200901N004619999999N0000001N9+01441+99999100901ADDGF101991999999999999999999
0029029720999991901053013004+60450+022267FM-12+001499999V0203601N006719999999N0000001N9+01561+99999101021ADDGF107991999999999999999999
0029029720999991901053020004+60450+022267FM-12+001499999V0203201N004619999999N0000001N9+01061+99999101241ADDGF108991999999999999999999
0029029810999991901053006004+59500+020350FM-12+002699999V0200501N006219999999N0000001N9+00781+99999100871ADDGF102991999999999999999999
0029029810999991901053013004+59500+020350FM-12+002699999V0209991C000019999999N0000001N9+01001+99999101231ADDGF101991999999999999999999
0029029810999991901053020004+59500+020350FM-12+002699999V0201801N001019999999N0000001N9+00781+99999101301ADDGF102991999999999999999999
0029227070999991901053006004+62167+030650FM-12+010299999V0203401N003119999999N0000001N9+00611+99999100301ADDGF102991999999999999999999
0029227070999991901053013004+62167+030650FM-12+010299999V0202501N004119999999N0000001N9+00891+99999100461ADDGF107991999999999999999999
0029227070999991901053020004+62167+030650FM-12+010299999V0202501N003119999999N0000001N9+00611+99999100381ADDGF107991999999999999999999
0029029070999991901061706004+64333+023450FM-12+000599999V0209991C000019999999N0000001N9+00781+99999101471ADDGF100991999999999999999999
0029029070999991901061713004+64333+023450FM-12+000599999V0209991C000019999999N0000001N9+01111+99999101671ADDGF100991999999999999999999
0029029070999991901061720004+64333+023450FM-12+000599999V0209991C000019999999N0000001N9+00831+99999101941ADDGF100991999999999999999999
0029029500999991901061706004+61483+021350FM-12+000699999V0200901N002119999999N0000001N9+01501+99999101191ADDGF108991999999999999999999
0029029500999991901061720004+61483+021350FM-12+000699999V0200501N002119999999N0000001N9+01331+99999101671ADDGF106991999999999999999999
0029029600999991901061706004+61183+022617FM-12+005199999V0200701N001019999999N0000001N9+01441+99999100661ADDGF108991999999999999999999
0035029600999991901061713004+61183+022617FM-12+005199999V0200501N004119999999N0000001N9+01611+99999100831ADDGF108991999999999999999999MW1621
0029029600999991901061720004+61183+022617FM-12+005199999V0200701N001019999999N0000001N9+01561+99999101071ADDGF106991999999999999999999
0029029720999991901061706004+60450+022267FM-12+001499999V0201101N009319999999N0000001N9+01941+99999100781ADDGF102991999999999999999999
0029029720999991901061713004+60450+022267FM-12+001499999V0201401N006719999999N0000001N9+01941+99999100941ADDGF106991999999999999999999
0029029720999991901061720004+60450+022267FM-12+001499999V0202501N001019999999N0000001N9+01501+99999101191ADDGF108991999999999999999999
0029029810999991901061706004+59500+020350FM-12+002699999V0203401N004119999999N0000001N9+01061+99999100801ADDGF102991999999999999999999
0029029810999991901061713004+59500+020350FM-12+002699999V0200901N003119999999N0000001N9+01001+99999101021ADDGF108991999999999999999999
0029029810999991901061720004+59500+020350FM-12+002699999V0209991C000019999999N0000001N9+00891+99999101191ADDGF108991999999999999999999
0029227070999991901061706004+62167+030650FM-12+010299999V0200501N002119999999N0000001N9+01501+99999100311ADDGF104991999999999999999999
0029227070999991901061713004+62167+030650FM-12+010299999V0200901N005119999999N0000001N9+02061+99999100431ADDGF104991999999999999999999
0029227070999991901061720004+62167+030650FM-12+010299999V0200901N002119999999N0000001N9+01441+99999100761ADDGF102991999999999999999999
0029029070999991901010620004+64333+023450FM-12+000599999V0203201N002119999999N0000001N9-00111+99999103191ADDGF100991999999999999999999
0029029070999991901062006004+64333+023450FM-12+000599999V0202301N004119999999N0000001N9+01001+99999101981ADDGF108991999999999999999999
0029029070999991901062013004+64333+023450FM-12+000599999V0209991C000019999999N0000001N9+01221+99999102081ADDGF108991999999999999999999
0029029070999991901062020004+64333+023450FM-12+000599999V0202001N008219999999N0000001N9+01001+99999102111ADDGF106991999999999999999999
0029029500999991901010620004+61483+021350FM-12+000699999V0202701N002119999999N0000001N9+00001+99999103311ADDGF102991999999999999999999
0029029500999991901062006004+61483+021350FM-12+000699999V0201601N009819999999N0000001N9+01281+99999101861ADDGF108991999999999999999999
0029029500999991901062013004+61483+021350FM-12+000699999V0202001N009819999999N0000001N9+01721+99999102031ADDGF102991999999999999999999
0029029500999991901062020004+61483+021350FM-12+000699999V0202001N006219999999N0000001N9+01391+99999102231ADDGF102991999999999999999999
0029029600999991901010620004+61183+022617FM-12+005199999V0202901N001019999999N0000001N9+00001+99999102911ADDGF108991999999999999999999
0029029600999991901062006004+61183+022617FM-12+005199999V0200501N005119999999N0000001N9+01441+99999101561ADDGF107991999999999999999999
0029029600999991901062013004+61183+022617FM-12+005199999V0200701N006219999999N0000001N9+01891+99999101741ADDGF106991999999999999999999
0029029600999991901062020004+61183+022617FM-12+005199999V0200901N003119999999N0000001N9+01671+99999101871ADDGF105991999999999999999999
0029029720999991901010620004+60450+022267FM-12+001499999V0202701N004619999999N0000001N9-00111+99999103201ADDGF108991999999999999999999
0029029720999991901062006004+60450+022267FM-12+001499999V0201601N009319999999N0000001N9+01721+99999101801ADDGF108991999999999999999999
0029029720999991901062013004+60450+022267FM-12+001499999V0202001N009319999999N0000001N9+01671+99999102071ADDGF100991999999999999999999
0029029720999991901062020004+60450+022267FM-12+001499999V0201801N004619999999N0000001N9+01391+99999102161ADDGF105991999999999999999999
0029029810999991901010620004+59500+020350FM-12+002699999V0202701N004119999999N0000001N9-00061+99999103631ADDGF106991999999999999999999
0029029810999991901062006004+59500+020350FM-12+002699999V0201801N008219999999N0000001N9+00941+99999101801ADDGF108991999999999999999999
0029029810999991901062013004+59500+020350FM-12+002699999V0201801N008719999999N0000001N9+01171+99999102121ADDGF102991999999999999999999
0029029810999991901062020004+59500+020350FM-12+002699999V0202001N006219999999N0000001N9+01061+99999102271ADDGF103991999999999999999999
0029227070999991901010620004+62167+030650FM-12+010299999V0203201N004119999999N0000001N9+00111+99999101861ADDGF108991999999999999999999
0029227070999991901062006004+62167+030650FM-12+010299999V0201401N001019999999N0000001N9+01831+99999101081ADDGF108991999999999999999999
0029227070999991901062013004+62167+030650FM-12+010299999V0202301N008219999999N0000001N9+02221+99999101351ADDGF106991999999999999999999
0029227070999991901062020004+62167+030650FM-12+010299999V0202701N002119999999N0000001N9+01671+99999101521ADDGF101991999999999999999999
0029029070999991901063006004+64333+023450FM-12+000599999V0201801N008219999999N0000001N9+01061+99999102321ADDGF103991999999999999999999
0029029070999991901063013004+64333+023450FM-12+000599999V0202301N006219999999N0000001N9+01281+99999102031ADDGF108991999999999999999999
0029029070999991901063020004+64333+023450FM-12+000599999V0202301N002119999999N0000001N9+01171+99999101911ADDGF103991999999999999999999
0029029500999991901063006004+61483+021350FM-12+000699999V0200701N002119999999N0000001N9+01501+99999102361ADDGF103991999999999999999999
0029029500999991901063013004+61483+021350FM-12+000699999V0202701N004119999999N0000001N9+01501+99999102241ADDGF103991999999999999999999
0029029500999991901063020004+61483+021350FM-12+000699999V0203201N004119999999N0000001N9+01221+99999102081ADDGF108991999999999999999999
0029029600999991901063006004+61183+022617FM-12+005199999V0203601N003119999999N0000001N9+01391+99999101801ADDGF101991999999999999999999
0029029600999991901063013004+61183+022617FM-12+005199999V0203601N003119999999N0000001N9+01781+99999101631ADDGF105991999999999999999999
0029029600999991901063020004+61183+022617FM-12+005199999V0202701N004119999999N0000001N9+01391+99999101431ADDGF108991999999999999999999
0029029720999991901063006004+60450+022267FM-12+001499999V0200201N006719999999N0000001N9+01891+99999101941ADDGF100991999999999999999999
0029029720999991901063013004+60450+022267FM-12+001499999V0203201N009319999999N0000001N9+01831+99999101801ADDGF106991999999999999999999
0029029720999991901063020004+60450+022267FM-12+001499999V0203401N006719999999N0000001N9+01501+99999101671ADDGF108991999999999999999999
0029029810999991901063006004+59500+020350FM-12+002699999V0203201N008219999999N0000001N9+01281+99999102111ADDGF107991999999999999999999
0029029810999991901063013004+59500+020350FM-12+002699999V0209991C000019999999N0000001N9+01501+99999102071ADDGF102991999999999999999999
0029029810999991901063020004+59500+020350FM-12+002699999V0202901N001019999999N0000001N9+01391+99999101801ADDGF107991999999999999999999
0029227070999991901063006004+62167+030650FM-12+010299999V0200201N004119999999N0000001N9+01221+99999101081ADDGF108991999999999999999999
0029227070999991901063013004+62167+030650FM-12+010299999V0203601N005119999999N0000001N9+01441+99999101141ADDGF108991999999999999999999
0029227070999991901063020004+62167+030650FM-12+010299999V0203401N003119999999N0000001N9+01331+99999100871ADDGF103991999999999999999999
0029029070999991901010720004+64333+023450FM-12+000599999V0202001N009819999999N0000001N9-00441+99999103321ADDGF100991999999999999999999
0029029070999991901072006004+64333+023450FM-12+000599999V0202701N006219999999N0000001N9+01831+99999102841ADDGF101991999999999999999999
0029029070999991901072013004+64333+023450FM-12+000599999V0202301N004119999999N0000001N9+02111+99999102711ADDGF100991999999999999999999
0029029070999991901072020004+64333+023450FM-12+000599999V0201801N002119999999N0000001N9+01781+99999102541ADDGF102991999999999999999999
0029029500999991901010720004+61483+021350FM-12+000699999V0201401N002119999999N0000001N9-00391+99999103551ADDGF108991999999999999999999
0029029500999991901072006004+61483+021350FM-12+000699999V0200901N004119999999N0000001N9+02061+99999102701ADDGF100991999999999999999999
0029029500999991901072013004+61483+021350FM-12+000699999V0203201N004119999999N0000001N9+02221+99999102561ADDGF100991999999999999999999
0029029500999991901072020004+61483+021350FM-12+000699999V0209991C000019999999N0000001N9+02171+99999102701ADDGF102991999999999999999999
0035029600999991901010720004+61183+022617FM-12+005199999V0201401N001019999999N0000001N9-01061+99999103191ADDGF108991999999999999999999MW1721
0029029600999991901072006004+61183+022617FM-12+005199999V0200501N001019999999N0000001N9+02171+99999102261ADDGF100991999999999999999999
0029029600999991901072013004+61183+022617FM-12+005199999V0200501N002119999999N0000001N9+02891+99999102111ADDGF102991999999999999999999
0029029600999991901072020004+61183+022617FM-12+005199999V0202701N002119999999N0000001N9+02331+99999102031ADDGF102991999999999999999999
0029029720999991901010720004+60450+022267FM-12+001499999V0209991C000019999999N0000001N9-00831+99999103461ADDGF108991999999999999999999
0029029720999991901072006004+60450+022267FM-12+001499999V0209991C000019999999N0000001N9+02501+99999102401ADDGF100991999999999999999999
0029029720999991901072013004+60450+022267FM-12+001499999V0203401N002619999999N0000001N9+03111+99999102301ADDGF102991999999999999999999
0029029720999991901072020004+60450+022267FM-12+001499999V0209991C000019999999N0000001N9+02441+99999102261ADDGF106991999999999999999999
0029029810999991901010720004+59500+020350FM-12+002699999V0202701N002119999999N0000001N9-00061+99999103551ADDGF108991999999999999999999
0029029810999991901072006004+59500+020350FM-12+002699999V0209991C000019999999N0000001N9+02221+99999102541ADDGF101991999999999999999999
0029029810999991901072013004+59500+020350FM-12+002699999V0209991C000019999999N0000001N9+02941+99999102501ADDGF103991999999999999999999
0029029810999991901072020004+59500+020350FM-12+002699999V0202501N002119999999N0000001N9+02391+99999102351ADDGF102991999999999999999999
0029227070999991901010720004+62167+030650FM-12+010299999V0203201N002119999999N0000001N9-00831+99999102541ADDGF100991999999999999999999
0029227070999991901072006004+62167+030650FM-12+010299999V0203601N002119999999N0000001N9+01891+99999101781ADDGF100991999999999999999999
0029227070999991901072013004+62167+030650FM-12+010299999V0203201N006219999999N0000001N9+02501+99999101671ADDGF101991999999999999999999
0029227070999991901072020004+62167+030650FM-12+010299999V0201101N001019999999N0000001N9+01831+99999101781ADDGF101991999999999999999999
0035029070999991901010820004+64333+023450FM-12+000599999V0202301N013919999999N0000001N9-00331+99999102991ADDGF108991999999999999999999MW1701
0029029070999991901082006004+64333+023450FM-12+000599999V0202501N013919999999N0000001N9+01441+99999101001ADDGF102991999999999999999999
0029029070999991901082013004+64333+023450FM-12+000599999V0202701N006219999999N0000001N9+01561+99999101311ADDGF102991999999999999999999
0029029070999991901082020004+64333+023450FM-12+000599999V0203601N002119999999N0000001N9+01391+99999101461ADDGF106991999999999999999999
0029029500999991901010820004+61483+021350FM-12+000699999V0202301N006219999999N0000001N9-00171+99999103311ADDGF108991999999999999999999
0029029500999991901082006004+61483+021350FM-12+000699999V0202501N008219999999N0000001N9+01611+99999101301ADDGF103991999999999999999999
0029029500999991901082013004+61483+021350FM-12+000699999V0202501N002119999999N0000001N9+01831+99999101311ADDGF106991999999999999999999
0029029500999991901082020004+61483+021350FM-12+000699999V0200501N004119999999N0000001N9+01561+99999101481ADDGF104991999999999999999999
0035029600999991901010820004+61183+022617FM-12+005199999V0202301N001019999999N0000001N9-00391+99999102911ADDGF108991999999999999999999MW1721
0029029600999991901082006004+61183+022617FM-12+005199999V0202001N004119999999N0000001N9+01331+99999100741ADDGF102991999999999999999999
0029029600999991901082013004+61183+022617FM-12+005199999V0202301N004119999999N0000001N9+01831+99999100751ADDGF108991999999999999999999
0029029600999991901082020004+61183+022617FM-12+005199999V0202701N002119999999N0000001N9+01061+99999100901ADDGF102991999999999999999999
0029029720999991901010820004+60450+022267FM-12+001499999V0202301N004619999999N0000001N9-00441+99999103281ADDGF108991999999999999999999
0029029720999991901082006004+60450+022267FM-12+001499999V0209991C000019999999N0000001N9+01831+99999101061ADDGF103991999999999999999999
0029029720999991901082013004+60450+022267FM-12+001499999V0201801N002619999999N0000001N9+01831+99999100991ADDGF108991999999999999999999
0029029720999991901082020004+60450+022267FM-12+001499999V0200201N004619999999N0000001N9+01281+99999101021ADDGF101991999999999999999999
0035029810999991901010820004+59500+020350FM-12+002699999V0202301N006219999999N0000001N9-00171+99999103361ADDGF108991999999999999999999MW1701
0029029810999991901082006004+59500+020350FM-12+002699999V0209991C000019999999N0000001N9+02281+99999101061ADDGF103991999999999999999999
0029029810999991901082013004+59500+020350FM-12+002699999V0201801N005119999999N0000001N9+02001+99999100991ADDGF106991999999999999999999
0035029810999991901082020004+59500+020350FM-12+002699999V0203401N004119999999N0000001N9+01721+99999101161ADDGF106991999999999999999999MW1131
0029227070999991901010820004+62167+030650FM-12+010299999V0203201N002119999999N0000001N9-00721+99999102161ADDGF108991999999999999999999
0029227070999991901082006004+62167+030650FM-12+010299999V0202901N002119999999N0000001N9+01611+99999100031ADDGF108991999999999999999999
0029227070999991901082013004+62167+030650FM-12+010299999V0203201N003119999999N0000001N9+01891+99999100181ADDGF104991999999999999999999
0029227070999991901082020004+62167+030650FM-12+010299999V0203201N002119999999N0000001N9+01501+99999100381ADDGF102991999999999999999999
0029029070999991901083006004+64333+023450FM-12+000599999V0200901N008219999999N0000001N9+01001+99999100871ADDGF104991999999999999999999
0029029070999991901083013004+64333+023450FM-12+000599999V0203601N004119999999N0000001N9+01331+99999100921ADDGF103991999999999999999999
0029029070999991901083020004+64333+023450FM-12+000599999V0200201N008219999999N0000001N9+01221+99999100861ADDGF102991999999999999999999
0029029500999991901083006004+61483+021350FM-12+000699999V0200701N008219999999N0000001N9+01221+99999100361ADDGF108991999999999999999999
0029029500999991901083013004+61483+021350FM-12+000699999V0200701N006219999999N0000001N9+01561+99999100661ADDGF107991999999999999999999
0029029500999991901083020004+61483+021350FM-12+000699999V0209991C000019999999N0000001N9+01331+99999100821ADDGF108991999999999999999999
0035029600999991901083006004+61183+022617FM-12+005199999V0200701N004119999999N0000001N9+01171+99999099861ADDGF108991999999999999999999MW1621
0029029600999991901083013004+61183+022617FM-12+005199999V0200501N005119999999N0000001N9+01391+99999100191ADDGF108991999999999999999999
0029029600999991901083020004+61183+022617FM-12+005199999V0200501N001019999999N0000001N9+01061+99999100261ADDGF108991999999999999999999
0029029720999991901083006004+60450+022267FM-12+001499999V0201601N006719999999N0000001N9+01281+99999099881ADDGF108991999999999999999999
0029029720999991901083013004+60450+022267FM-12+001499999V0202301N006719999999N0000001N9+01891+99999100241ADDGF104991999999999999999999
0029029720999991901083020004+60450+022267FM-12+001499999V0209991C000019999999N0000001N9+01281+99999100061ADDGF108991999999999999999999
0029029810999991901083006004+59500+020350FM-12+002699999V0202701N008719999999N0000001N9+01441+99999100061ADDGF107991999999999999999999
0035029810999991901083013004+59500+020350FM-12+002699999V0202701N002119999999N0000001N9+01331+99999100261ADDGF106991999999999999999999MW1601
0029227070999991901083006004+62167+030650FM-12+010299999V0200201N004119999999N0000001N9+00671+99999099741ADDGF100991999999999999999999
0029227070999991901083013004+62167+030650FM-12+010299999V0200501N006219999999N0000001N9+01501+99999099801ADDGF102991999999999999999999
0029227070999991901083020004+62167+030650FM-12+010299999V0201401N003119999999N0000001N9+00831+99999099681ADDGF102991999999999999999999
0035029070999991901011520004+64333+023450FM-12+000599999V0202301N015919999999N0000001N9+00221+99999101321ADDGF108991999999999999999999MW1721
0029029500999991901011520004+61483+021350FM-12+000699999V0202501N008219999999N0000001N9-00111+99999102281ADDGF100991999999999999999999
0029029600999991901011520004+61183+022617FM-12+005199999V0202001N002119999999N0000001N9-00331+99999101841ADDGF108991999999999999999999
0029029720999991901011520004+60450+022267FM-12+001499999V0203201N009319999999N0000001N9-00331+99999102311ADDGF108991999999999999999999
0029029810999991901011520004+59500+020350FM-12+002699999V0202701N009819999999N0000001N9-00171+99999102421ADDGF106991999999999999999999
0029227070999991901011520004+62167+030650FM-12+010299999V0202701N001019999999N0000001N9-00501+99999100511ADDGF100991999999999999999999
0029029070999991901011220004+64333+023450FM-12+000599999V0202901N009819999999N0000001N9-00221+99999102191ADDGF100991999999999999999999
0029029070999991901122006004+64333+023450FM-12+000599999V0201401N009819999999N0000001N9-00671+99999101701ADDGF108991999999999999999999
0029029070999991901122013004+64333+023450FM-12+000599999V0209991C000019999999N0000001N9-00441+99999101751ADDGF108991999999999999999999
0029029070999991901122020004+64333+023450FM-12+000599999V0209991C000019999999N0000001N9-00441+99999101801ADDGF108991999999999999999999
0029029500999991901011220004+61483+021350FM-12+000699999V0203401N009819999999N0000001N9+00001+99999102641ADDGF100991999999999999999999
0029029500999991901122006004+61483+021350FM-12+000699999V0200901N004119999999N0000001N9-00441+99999101601ADDGF108991999999999999999999
0029029500999991901122013004+61483+021350FM-12+000699999V0201401N002119999999N0000001N9-00391+99999101791ADDGF108991999999999999999999
0029029500999991901122020004+61483+021350FM-12+000699999V0201101N004119999999N0000001N9-00391+99999101781ADDGF108991999999999999999999
0029029600999991901011220004+61183+022617FM-12+005199999V0202701N002119999999N0000001N9-00671+99999102081ADDGF100991999999999999999999
0029029600999991901122006004+61183+022617FM-12+005199999V0200701N002119999999N0000001N9-00441+99999100981ADDGF108991999999999999999999
0029029600999991901122013004+61183+022617FM-12+005199999V0200701N003119999999N0000001N9-00391+99999101191ADDGF108991999999999999999999
0029029600999991901122020004+61183+022617FM-12+005199999V0200701N002119999999N0000001N9-00391+99999101191ADDGF108991999999999999999999
0029029720999991901011220004+60450+022267FM-12+001499999V0200501N002619999999N0000001N9-00391+99999102391ADDGF100991999999999999999999
0029029720999991901122006004+60450+022267FM-12+001499999V0209991C000019999999N0000001N9-00281+99999101121ADDGF108991999999999999999999
0029029720999991901122020004+60450+022267FM-12+001499999V0200701N002619999999N0000001N9-00171+99999101301ADDGF108991999999999999999999
0029029810999991901011220004+59500+020350FM-12+002699999V0203401N008219999999N0000001N9+00111+99999102621ADDGF100991999999999999999999
0029029810999991901122006004+59500+020350FM-12+002699999V0200901N006219999999N0000001N9+00001+99999101151ADDGF108991999999999999999999
0029029810999991901122013004+59500+020350FM-12+002699999V0200501N009819999999N0000001N9+00061+99999101221ADDGF108991999999999999999999
0029029810999991901122020004+59500+020350FM-12+002699999V0200901N007219999999N0000001N9+00111+99999101071ADDGF108991999999999999999999
0029227070999991901011220004+62167+030650FM-12+010299999V0203201N002119999999N0000001N9-00561+99999100661ADDGF100991999999999999999999
0029227070999991901122006004+62167+030650FM-12+010299999V0200501N004119999999N0000001N9-00831+99999101151ADDGF108991999999999999999999
0029227070999991901122013004+62167+030650FM-12+010299999V0200501N004119999999N0000001N9-00831+99999101181ADDGF108991999999999999999999
0029227070999991901122020004+62167+030650FM-12+010299999V0200501N003119999999N0000001N9-00721+99999101231ADDGF108991999999999999999999
0035029070999991901121006004+64333+023450FM-12+000599999V0200501N015919999999N0000001N9-00891+99999098741ADDGF108991999999999999999999MW1721
0035029070999991901121013004+64333+023450FM-12+000599999V0200501N011819999999N0000001N9-00781+99999098821ADDGF108991999999999999999999MW1721
0035029070999991901121020004+64333+023450FM-12+000599999V0200501N020119999999N0000001N9-00611+99999098901ADDGF108991999999999999999999MW1721
0029029500999991901121006004+61483+021350FM-12+000699999V0200501N008219999999N0000001N9-01171+99999098301ADDGF108991999999999999999999
0029029500999991901121013004+61483+021350FM-12+000699999V0200501N008219999999N0000001N9-01111+99999098351ADDGF108991999999999999999999
0029029500999991901121020004+61483+021350FM-12+000699999V0200501N009819999999N0000001N9-01061+99999098501ADDGF108991999999999999999999
0029029600999991901121006004+61183+022617FM-12+005199999V0200201N005119999999N0000001N9-01171+99999097581ADDGF103991999999999999999999
0029029600999991901121013004+61183+022617FM-12+005199999V0200501N006219999999N0000001N9-01111+99999097681ADDGF108991999999999999999999
0035029600999991901121020004+61183+022617FM-12+005199999V0200201N005119999999N0000001N9-01221+99999097841ADDGF108991999999999999999999MW1721
0029029720999991901121006004+60450+022267FM-12+001499999V0209991C000019999999N0000001N9-01001+99999097661ADDGF108991999999999999999999
0029029720999991901121013004+60450+022267FM-12+001499999V0200501N009319999999N0000001N9-01111+99999097831ADDGF108991999999999999999999
0029029720999991901121020004+60450+022267FM-12+001499999V0200501N004619999999N0000001N9-01221+99999097991ADDGF103991999999999999999999
0035029810999991901121006004+59500+020350FM-12+002699999V0203601N009819999999N0000001N9-00331+99999097681ADDGF108991999999999999999999MW1721
0035029810999991901121013004+59500+020350FM-12+002699999V0203601N009819999999N0000001N9-00331+99999097861ADDGF108991999999999999999999MW1721
0035029810999991901121020004+59500+020350FM-12+002699999V0203601N010819999999N0000001N9-00501+99999098081ADDGF108991999999999999999999MW1721
0029227070999991901121006004+62167+030650FM-12+010299999V0200501N004119999999N0000001N9-01391+99999097271ADDGF108991999999999999999999
0029227070999991901121013004+62167+030650FM-12+010299999V0200501N008219999999N0000001N9-01391+99999097241ADDGF108991999999999999999999
0029227070999991901121020004+62167+030650FM-12+010299999V0200501N004119999999N0000001N9-01281+99999097461ADDGF108991999999999999999999
0029029070999991901103006004+64333+023450FM-12+000599999V0203601N020119999999N0000001N9+00611+99999101301ADDGF100991999999999999999999
0029029070999991901103013004+64333+023450FM-12+000599999V0203401N020119999999N0000001N9+00561+99999101881ADDGF106991999999999999999999
0035029070999991901103020004+64333+023450FM-12+000599999V0203401N020119999999N0000001N9+00391+99999102301ADDGF106991999999999999999999MW1891
0029029500999991901103006004+61483+021350FM-12+000699999V0200201N022119999999N0000001N9+00781+99999101341ADDGF108991999999999999999999
0029029500999991901103013004+61483+021350FM-12+000699999V0203401N022119999999N0000001N9+00671+99999102191ADDGF107991999999999999999999
0029029500999991901103020004+61483+021350FM-12+000699999V0200201N018019999999N0000001N9+00561+99999102641ADDGF102991999999999999999999
0029029600999991901103006004+61183+022617FM-12+005199999V0203401N006219999999N0000001N9+00441+99999100591ADDGF106991999999999999999999
0029029600999991901103013004+61183+022617FM-12+005199999V0203401N006219999999N0000001N9+00671+99999101461ADDGF102991999999999999999999
0029029600999991901103020004+61183+022617FM-12+005199999V0203201N005119999999N0000001N9+00171+99999102041ADDGF100991999999999999999999
0029029720999991901103006004+60450+022267FM-12+001499999V0203201N009319999999N0000001N9+00501+99999100841ADDGF106991999999999999999999
0029029720999991901103013004+60450+022267FM-12+001499999V0203201N009319999999N0000001N9+00611+99999101821ADDGF107991999999999999999999
0029029720999991901103020004+60450+022267FM-12+001499999V0203401N004619999999N0000001N9+00221+99999102241ADDGF101991999999999999999999
0029029810999991901103006004+59500+020350FM-12+002699999V0203401N014919999999N0000001N9+00781+99999101361ADDGF106991999999999999999999
0029029810999991901103013004+59500+020350FM-12+002699999V0203401N015919999999N0000001N9+00721+99999102071ADDGF104991999999999999999999
0029029810999991901103020004+59500+020350FM-12+002699999V0203401N012919999999N0000001N9+00611+99999102781ADDGF104991999999999999999999
0029227070999991901103006004+62167+030650FM-12+010299999V0203201N005119999999N0000001N9+00331+99999099111ADDGF108991999999999999999999
0029227070999991901103013004+62167+030650FM-12+010299999V0203201N003119999999N0000001N9+00441+99999100101ADDGF104991999999999999999999
0029227070999991901103020004+62167+030650FM-12+010299999V0203201N002119999999N0000001N9-00061+99999100711ADDGF101991999999999999999999

